{
	"FundMe.sol": {
		"FundMe": {
			"abi": [
				{
					"inputs": [],
					"stateMutability": "nonpayable",
					"type": "constructor"
				},
				{
					"inputs": [],
					"name": "fund",
					"outputs": [],
					"stateMutability": "payable",
					"type": "function"
				},
				{
					"inputs": [
						{
							"internalType": "address",
							"name": "",
							"type": "address"
						}
					],
					"name": "funders2Amount",
					"outputs": [
						{
							"internalType": "uint256",
							"name": "",
							"type": "uint256"
						}
					],
					"stateMutability": "view",
					"type": "function"
				},
				{
					"inputs": [],
					"name": "getChainlinkDataFeedLatestAnswer",
					"outputs": [
						{
							"internalType": "int256",
							"name": "",
							"type": "int256"
						}
					],
					"stateMutability": "view",
					"type": "function"
				},
				{
					"inputs": [],
					"name": "getFund",
					"outputs": [],
					"stateMutability": "nonpayable",
					"type": "function"
				},
				{
					"inputs": [],
					"name": "owner",
					"outputs": [
						{
							"internalType": "address",
							"name": "",
							"type": "address"
						}
					],
					"stateMutability": "view",
					"type": "function"
				},
				{
					"inputs": [
						{
							"internalType": "address",
							"name": "newOwner",
							"type": "address"
						}
					],
					"name": "transferOwnership",
					"outputs": [],
					"stateMutability": "nonpayable",
					"type": "function"
				}
			],
			"devdoc": {
				"kind": "dev",
				"methods": {},
				"version": 1
			},
			"evm": {
				"assembly": "    /* \"FundMe.sol\":387:2318  contract FundMe {... */\n  mstore(0x40, 0x80)\n    /* \"FundMe.sol\":491:501  100*10**18 */\n  0x056bc75e2d63100000\n    /* \"FundMe.sol\":467:501  uint256 MINIMUM_VALUE = 100*10**18 */\n  0x01\n  sstore\n    /* \"FundMe.sol\":658:796  constructor() {... */\n  callvalue\n  dup1\n  iszero\n  tag_1\n  jumpi\n  0x00\n  dup1\n  revert\ntag_1:\n  pop\n    /* \"FundMe.sol\":691:701  msg.sender */\n  caller\n    /* \"FundMe.sol\":683:688  owner */\n  0x03\n  0x00\n    /* \"FundMe.sol\":683:701  owner = msg.sender */\n  0x0100\n  exp\n  dup2\n  sload\n  dup2\n  0xffffffffffffffffffffffffffffffffffffffff\n  mul\n  not\n  and\n  swap1\n  dup4\n  0xffffffffffffffffffffffffffffffffffffffff\n  and\n  mul\n  or\n  swap1\n  sstore\n  pop\n    /* \"FundMe.sol\":745:787  0x694AA1769357215DE4FAC081bf1f309aDC325306 */\n  0x694aa1769357215de4fac081bf1f309adc325306\n    /* \"FundMe.sol\":712:720  dataFeed */\n  0x02\n  0x00\n    /* \"FundMe.sol\":712:788  dataFeed = AggregatorV3Interface(0x694AA1769357215DE4FAC081bf1f309aDC325306) */\n  0x0100\n  exp\n  dup2\n  sload\n  dup2\n  0xffffffffffffffffffffffffffffffffffffffff\n  mul\n  not\n  and\n  swap1\n  dup4\n  0xffffffffffffffffffffffffffffffffffffffff\n  and\n  mul\n  or\n  swap1\n  sstore\n  pop\n    /* \"FundMe.sol\":387:2318  contract FundMe {... */\n  dataSize(sub_0)\n  dup1\n  dataOffset(sub_0)\n  0x00\n  codecopy\n  0x00\n  return\nstop\n\nsub_0: assembly {\n        /* \"FundMe.sol\":387:2318  contract FundMe {... */\n      mstore(0x40, 0x80)\n      jumpi(tag_1, lt(calldatasize, 0x04))\n      shr(0xe0, calldataload(0x00))\n      dup1\n      0x01fa9ffb\n      eq\n      tag_2\n      jumpi\n      dup1\n      0x8da5cb5b\n      eq\n      tag_3\n      jumpi\n      dup1\n      0x8edd6eb6\n      eq\n      tag_4\n      jumpi\n      dup1\n      0xb60d4288\n      eq\n      tag_5\n      jumpi\n      dup1\n      0xbea4dfb5\n      eq\n      tag_6\n      jumpi\n      dup1\n      0xf2fde38b\n      eq\n      tag_7\n      jumpi\n    tag_1:\n      0x00\n      dup1\n      revert\n        /* \"FundMe.sol\":410:458  mapping (address=>uint256) public funders2Amount */\n    tag_2:\n      callvalue\n      dup1\n      iszero\n      tag_8\n      jumpi\n      0x00\n      dup1\n      revert\n    tag_8:\n      pop\n      tag_9\n      0x04\n      dup1\n      calldatasize\n      sub\n      dup2\n      add\n      swap1\n      tag_10\n      swap2\n      swap1\n      tag_11\n      jump\t// in\n    tag_10:\n      tag_12\n      jump\t// in\n    tag_9:\n      mload(0x40)\n      tag_13\n      swap2\n      swap1\n      tag_14\n      jump\t// in\n    tag_13:\n      mload(0x40)\n      dup1\n      swap2\n      sub\n      swap1\n      return\n        /* \"FundMe.sol\":609:629  address public owner */\n    tag_3:\n      callvalue\n      dup1\n      iszero\n      tag_15\n      jumpi\n      0x00\n      dup1\n      revert\n    tag_15:\n      pop\n      tag_16\n      tag_17\n      jump\t// in\n    tag_16:\n      mload(0x40)\n      tag_18\n      swap2\n      swap1\n      tag_19\n      jump\t// in\n    tag_18:\n      mload(0x40)\n      dup1\n      swap2\n      sub\n      swap1\n      return\n        /* \"FundMe.sol\":1278:1775  function getFund() external {... */\n    tag_4:\n      callvalue\n      dup1\n      iszero\n      tag_20\n      jumpi\n      0x00\n      dup1\n      revert\n    tag_20:\n      pop\n      tag_21\n      tag_22\n      jump\t// in\n    tag_21:\n      stop\n        /* \"FundMe.sol\":829:992  function fund() external payable {... */\n    tag_5:\n      tag_23\n      tag_24\n      jump\t// in\n    tag_23:\n      stop\n        /* \"FundMe.sol\":1967:2315  function getChainlinkDataFeedLatestAnswer() public view returns (int) {... */\n    tag_6:\n      callvalue\n      dup1\n      iszero\n      tag_25\n      jumpi\n      0x00\n      dup1\n      revert\n    tag_25:\n      pop\n      tag_26\n      tag_27\n      jump\t// in\n    tag_26:\n      mload(0x40)\n      tag_28\n      swap2\n      swap1\n      tag_29\n      jump\t// in\n    tag_28:\n      mload(0x40)\n      dup1\n      swap2\n      sub\n      swap1\n      return\n        /* \"FundMe.sol\":1783:1953  function transferOwnership(address newOwner) public {... */\n    tag_7:\n      callvalue\n      dup1\n      iszero\n      tag_30\n      jumpi\n      0x00\n      dup1\n      revert\n    tag_30:\n      pop\n      tag_31\n      0x04\n      dup1\n      calldatasize\n      sub\n      dup2\n      add\n      swap1\n      tag_32\n      swap2\n      swap1\n      tag_11\n      jump\t// in\n    tag_32:\n      tag_33\n      jump\t// in\n    tag_31:\n      stop\n        /* \"FundMe.sol\":410:458  mapping (address=>uint256) public funders2Amount */\n    tag_12:\n      mstore(0x20, 0x00)\n      dup1\n      0x00\n      mstore\n      keccak256(0x00, 0x40)\n      0x00\n      swap2\n      pop\n      swap1\n      pop\n      sload\n      dup2\n      jump\t// out\n        /* \"FundMe.sol\":609:629  address public owner */\n    tag_17:\n      0x03\n      0x00\n      swap1\n      sload\n      swap1\n      0x0100\n      exp\n      swap1\n      div\n      0xffffffffffffffffffffffffffffffffffffffff\n      and\n      dup2\n      jump\t// out\n        /* \"FundMe.sol\":1278:1775  function getFund() external {... */\n    tag_22:\n        /* \"FundMe.sol\":589:600  1000*10**18 */\n      0x3635c9adc5dea00000\n        /* \"FundMe.sol\":1325:1362  convertETH2USD(address(this).balance) */\n      tag_35\n        /* \"FundMe.sol\":1340:1361  address(this).balance */\n      selfbalance\n        /* \"FundMe.sol\":1325:1339  convertETH2USD */\n      tag_36\n        /* \"FundMe.sol\":1325:1362  convertETH2USD(address(this).balance) */\n      jump\t// in\n    tag_35:\n        /* \"FundMe.sol\":1325:1372  convertETH2USD(address(this).balance) >= TARGET */\n      lt\n      iszero\n        /* \"FundMe.sol\":1317:1398  require(convertETH2USD(address(this).balance) >= TARGET, \"Target is not reached\") */\n      tag_37\n      jumpi\n      mload(0x40)\n      0x08c379a000000000000000000000000000000000000000000000000000000000\n      dup2\n      mstore\n      0x04\n      add\n      tag_38\n      swap1\n      tag_39\n      jump\t// in\n    tag_38:\n      mload(0x40)\n      dup1\n      swap2\n      sub\n      swap1\n      revert\n    tag_37:\n        /* \"FundMe.sol\":1501:1511  msg.sender */\n      caller\n        /* \"FundMe.sol\":1493:1521  payable(msg.sender).transfer */\n      0xffffffffffffffffffffffffffffffffffffffff\n      and\n        /* \"FundMe.sol\":1493:1544  payable(msg.sender).transfer(address(this).balance) */\n      0x08fc\n        /* \"FundMe.sol\":1522:1543  address(this).balance */\n      selfbalance\n        /* \"FundMe.sol\":1493:1544  payable(msg.sender).transfer(address(this).balance) */\n      swap1\n      dup2\n      iszero\n      mul\n      swap1\n      mload(0x40)\n      0x00\n      mload(0x40)\n      dup1\n      dup4\n      sub\n      dup2\n      dup6\n      dup9\n      dup9\n      call\n      swap4\n      pop\n      pop\n      pop\n      pop\n      iszero\n      dup1\n      iszero\n      tag_41\n      jumpi\n      returndatasize\n      0x00\n      dup1\n      returndatacopy\n      revert(0x00, returndatasize)\n    tag_41:\n      pop\n        /* \"FundMe.sol\":1577:1582  owner */\n      0x03\n      0x00\n      swap1\n      sload\n      swap1\n      0x0100\n      exp\n      swap1\n      div\n      0xffffffffffffffffffffffffffffffffffffffff\n      and\n        /* \"FundMe.sol\":1563:1582  msg.sender == owner */\n      0xffffffffffffffffffffffffffffffffffffffff\n      and\n        /* \"FundMe.sol\":1563:1573  msg.sender */\n      caller\n        /* \"FundMe.sol\":1563:1582  msg.sender == owner */\n      0xffffffffffffffffffffffffffffffffffffffff\n      and\n      eq\n        /* \"FundMe.sol\":1555:1627  require(msg.sender == owner,\"this function can only be called by owner\") */\n      tag_42\n      jumpi\n      mload(0x40)\n      0x08c379a000000000000000000000000000000000000000000000000000000000\n      dup2\n      mstore\n      0x04\n      add\n      tag_43\n      swap1\n      tag_44\n      jump\t// in\n    tag_43:\n      mload(0x40)\n      dup1\n      swap2\n      sub\n      swap1\n      revert\n    tag_42:\n        /* \"FundMe.sol\":1278:1775  function getFund() external {... */\n      jump\t// out\n        /* \"FundMe.sol\":829:992  function fund() external payable {... */\n    tag_24:\n        /* \"FundMe.sol\":907:920  MINIMUM_VALUE */\n      sload(0x01)\n        /* \"FundMe.sol\":881:906  convertETH2USD(msg.value) */\n      tag_46\n        /* \"FundMe.sol\":896:905  msg.value */\n      callvalue\n        /* \"FundMe.sol\":881:895  convertETH2USD */\n      tag_36\n        /* \"FundMe.sol\":881:906  convertETH2USD(msg.value) */\n      jump\t// in\n    tag_46:\n        /* \"FundMe.sol\":881:920  convertETH2USD(msg.value)>MINIMUM_VALUE */\n      gt\n        /* \"FundMe.sol\":873:937  require(convertETH2USD(msg.value)>MINIMUM_VALUE,\"send more ETH\") */\n      tag_47\n      jumpi\n      mload(0x40)\n      0x08c379a000000000000000000000000000000000000000000000000000000000\n      dup2\n      mstore\n      0x04\n      add\n      tag_48\n      swap1\n      tag_49\n      jump\t// in\n    tag_48:\n      mload(0x40)\n      dup1\n      swap2\n      sub\n      swap1\n      revert\n    tag_47:\n        /* \"FundMe.sol\":975:984  msg.value */\n      callvalue\n        /* \"FundMe.sol\":948:962  funders2Amount */\n      0x00\n        /* \"FundMe.sol\":948:974  funders2Amount[msg.sender] */\n      dup1\n        /* \"FundMe.sol\":963:973  msg.sender */\n      caller\n        /* \"FundMe.sol\":948:974  funders2Amount[msg.sender] */\n      0xffffffffffffffffffffffffffffffffffffffff\n      and\n      0xffffffffffffffffffffffffffffffffffffffff\n      and\n      dup2\n      mstore\n      0x20\n      add\n      swap1\n      dup2\n      mstore\n      0x20\n      add\n      0x00\n      keccak256\n        /* \"FundMe.sol\":948:984  funders2Amount[msg.sender]=msg.value */\n      dup2\n      swap1\n      sstore\n      pop\n        /* \"FundMe.sol\":829:992  function fund() external payable {... */\n      jump\t// out\n        /* \"FundMe.sol\":1967:2315  function getChainlinkDataFeedLatestAnswer() public view returns (int) {... */\n    tag_27:\n        /* \"FundMe.sol\":2032:2035  int */\n      0x00\n        /* \"FundMe.sol\":2126:2136  int answer */\n      dup1\n        /* \"FundMe.sol\":2257:2265  dataFeed */\n      0x02\n      0x00\n      swap1\n      sload\n      swap1\n      0x0100\n      exp\n      swap1\n      div\n      0xffffffffffffffffffffffffffffffffffffffff\n      and\n        /* \"FundMe.sol\":2257:2281  dataFeed.latestRoundData */\n      0xffffffffffffffffffffffffffffffffffffffff\n      and\n      0xfeaf968c\n        /* \"FundMe.sol\":2257:2283  dataFeed.latestRoundData() */\n      mload(0x40)\n      dup2\n      0xffffffff\n      and\n      0xe0\n      shl\n      dup2\n      mstore\n      0x04\n      add\n      0xa0\n      mload(0x40)\n      dup1\n      dup4\n      sub\n      dup2\n      dup7\n      gas\n      staticcall\n      iszero\n      dup1\n      iszero\n      tag_52\n      jumpi\n      returndatasize\n      0x00\n      dup1\n      returndatacopy\n      revert(0x00, returndatasize)\n    tag_52:\n      pop\n      pop\n      pop\n      pop\n      mload(0x40)\n      returndatasize\n      not(0x1f)\n      0x1f\n      dup3\n      add\n      and\n      dup3\n      add\n      dup1\n      0x40\n      mstore\n      pop\n      dup2\n      add\n      swap1\n      tag_53\n      swap2\n      swap1\n      tag_54\n      jump\t// in\n    tag_53:\n        /* \"FundMe.sol\":2076:2283  (... */\n      pop\n      pop\n      pop\n      swap2\n      pop\n      pop\n        /* \"FundMe.sol\":2301:2307  answer */\n      dup1\n        /* \"FundMe.sol\":2294:2307  return answer */\n      swap2\n      pop\n      pop\n        /* \"FundMe.sol\":1967:2315  function getChainlinkDataFeedLatestAnswer() public view returns (int) {... */\n      swap1\n      jump\t// out\n        /* \"FundMe.sol\":1783:1953  function transferOwnership(address newOwner) public {... */\n    tag_33:\n        /* \"FundMe.sol\":1868:1873  owner */\n      0x03\n      0x00\n      swap1\n      sload\n      swap1\n      0x0100\n      exp\n      swap1\n      div\n      0xffffffffffffffffffffffffffffffffffffffff\n      and\n        /* \"FundMe.sol\":1854:1873  msg.sender == owner */\n      0xffffffffffffffffffffffffffffffffffffffff\n      and\n        /* \"FundMe.sol\":1854:1864  msg.sender */\n      caller\n        /* \"FundMe.sol\":1854:1873  msg.sender == owner */\n      0xffffffffffffffffffffffffffffffffffffffff\n      and\n      eq\n        /* \"FundMe.sol\":1846:1918  require(msg.sender == owner,\"this function can only be called by owner\") */\n      tag_56\n      jumpi\n      mload(0x40)\n      0x08c379a000000000000000000000000000000000000000000000000000000000\n      dup2\n      mstore\n      0x04\n      add\n      tag_57\n      swap1\n      tag_44\n      jump\t// in\n    tag_57:\n      mload(0x40)\n      dup1\n      swap2\n      sub\n      swap1\n      revert\n    tag_56:\n        /* \"FundMe.sol\":1937:1945  newOwner */\n      dup1\n        /* \"FundMe.sol\":1929:1934  owner */\n      0x03\n      0x00\n        /* \"FundMe.sol\":1929:1945  owner = newOwner */\n      0x0100\n      exp\n      dup2\n      sload\n      dup2\n      0xffffffffffffffffffffffffffffffffffffffff\n      mul\n      not\n      and\n      swap1\n      dup4\n      0xffffffffffffffffffffffffffffffffffffffff\n      and\n      mul\n      or\n      swap1\n      sstore\n      pop\n        /* \"FundMe.sol\":1783:1953  function transferOwnership(address newOwner) public {... */\n      pop\n      jump\t// out\n        /* \"FundMe.sol\":1014:1205  function convertETH2USD(uint256 ethAmount) internal view returns(uint256) {... */\n    tag_36:\n        /* \"FundMe.sol\":1079:1086  uint256 */\n      0x00\n        /* \"FundMe.sol\":1099:1115  uint256 ethPrice */\n      dup1\n        /* \"FundMe.sol\":1126:1160  getChainlinkDataFeedLatestAnswer() */\n      tag_59\n        /* \"FundMe.sol\":1126:1158  getChainlinkDataFeedLatestAnswer */\n      tag_27\n        /* \"FundMe.sol\":1126:1160  getChainlinkDataFeedLatestAnswer() */\n      jump\t// in\n    tag_59:\n        /* \"FundMe.sol\":1099:1161  uint256 ethPrice = uint256(getChainlinkDataFeedLatestAnswer()) */\n      swap1\n      pop\n        /* \"FundMe.sol\":1188:1197  ethAmount */\n      dup3\n        /* \"FundMe.sol\":1179:1187  ethPrice */\n      dup2\n        /* \"FundMe.sol\":1179:1197  ethPrice*ethAmount */\n      tag_60\n      swap2\n      swap1\n      tag_61\n      jump\t// in\n    tag_60:\n        /* \"FundMe.sol\":1172:1197  return ethPrice*ethAmount */\n      swap2\n      pop\n      pop\n        /* \"FundMe.sol\":1014:1205  function convertETH2USD(uint256 ethAmount) internal view returns(uint256) {... */\n      swap2\n      swap1\n      pop\n      jump\t// out\n        /* \"#utility.yul\":88:205   */\n    tag_63:\n        /* \"#utility.yul\":197:198   */\n      0x00\n        /* \"#utility.yul\":194:195   */\n      dup1\n        /* \"#utility.yul\":187:199   */\n      revert\n        /* \"#utility.yul\":334:460   */\n    tag_65:\n        /* \"#utility.yul\":371:378   */\n      0x00\n        /* \"#utility.yul\":411:453   */\n      0xffffffffffffffffffffffffffffffffffffffff\n        /* \"#utility.yul\":404:409   */\n      dup3\n        /* \"#utility.yul\":400:454   */\n      and\n        /* \"#utility.yul\":389:454   */\n      swap1\n      pop\n        /* \"#utility.yul\":334:460   */\n      swap2\n      swap1\n      pop\n      jump\t// out\n        /* \"#utility.yul\":466:562   */\n    tag_66:\n        /* \"#utility.yul\":503:510   */\n      0x00\n        /* \"#utility.yul\":532:556   */\n      tag_95\n        /* \"#utility.yul\":550:555   */\n      dup3\n        /* \"#utility.yul\":532:556   */\n      tag_65\n      jump\t// in\n    tag_95:\n        /* \"#utility.yul\":521:556   */\n      swap1\n      pop\n        /* \"#utility.yul\":466:562   */\n      swap2\n      swap1\n      pop\n      jump\t// out\n        /* \"#utility.yul\":568:690   */\n    tag_67:\n        /* \"#utility.yul\":641:665   */\n      tag_97\n        /* \"#utility.yul\":659:664   */\n      dup2\n        /* \"#utility.yul\":641:665   */\n      tag_66\n      jump\t// in\n    tag_97:\n        /* \"#utility.yul\":634:639   */\n      dup2\n        /* \"#utility.yul\":631:666   */\n      eq\n        /* \"#utility.yul\":621:684   */\n      tag_98\n      jumpi\n        /* \"#utility.yul\":680:681   */\n      0x00\n        /* \"#utility.yul\":677:678   */\n      dup1\n        /* \"#utility.yul\":670:682   */\n      revert\n        /* \"#utility.yul\":621:684   */\n    tag_98:\n        /* \"#utility.yul\":568:690   */\n      pop\n      jump\t// out\n        /* \"#utility.yul\":696:835   */\n    tag_68:\n        /* \"#utility.yul\":742:747   */\n      0x00\n        /* \"#utility.yul\":780:786   */\n      dup2\n        /* \"#utility.yul\":767:787   */\n      calldataload\n        /* \"#utility.yul\":758:787   */\n      swap1\n      pop\n        /* \"#utility.yul\":796:829   */\n      tag_100\n        /* \"#utility.yul\":823:828   */\n      dup2\n        /* \"#utility.yul\":796:829   */\n      tag_67\n      jump\t// in\n    tag_100:\n        /* \"#utility.yul\":696:835   */\n      swap3\n      swap2\n      pop\n      pop\n      jump\t// out\n        /* \"#utility.yul\":841:1170   */\n    tag_11:\n        /* \"#utility.yul\":900:906   */\n      0x00\n        /* \"#utility.yul\":949:951   */\n      0x20\n        /* \"#utility.yul\":937:946   */\n      dup3\n        /* \"#utility.yul\":928:935   */\n      dup5\n        /* \"#utility.yul\":924:947   */\n      sub\n        /* \"#utility.yul\":920:952   */\n      slt\n        /* \"#utility.yul\":917:1036   */\n      iszero\n      tag_102\n      jumpi\n        /* \"#utility.yul\":955:1034   */\n      tag_103\n      tag_63\n      jump\t// in\n    tag_103:\n        /* \"#utility.yul\":917:1036   */\n    tag_102:\n        /* \"#utility.yul\":1075:1076   */\n      0x00\n        /* \"#utility.yul\":1100:1153   */\n      tag_104\n        /* \"#utility.yul\":1145:1152   */\n      dup5\n        /* \"#utility.yul\":1136:1142   */\n      dup3\n        /* \"#utility.yul\":1125:1134   */\n      dup6\n        /* \"#utility.yul\":1121:1143   */\n      add\n        /* \"#utility.yul\":1100:1153   */\n      tag_68\n      jump\t// in\n    tag_104:\n        /* \"#utility.yul\":1090:1153   */\n      swap2\n      pop\n        /* \"#utility.yul\":1046:1163   */\n      pop\n        /* \"#utility.yul\":841:1170   */\n      swap3\n      swap2\n      pop\n      pop\n      jump\t// out\n        /* \"#utility.yul\":1176:1253   */\n    tag_69:\n        /* \"#utility.yul\":1213:1220   */\n      0x00\n        /* \"#utility.yul\":1242:1247   */\n      dup2\n        /* \"#utility.yul\":1231:1247   */\n      swap1\n      pop\n        /* \"#utility.yul\":1176:1253   */\n      swap2\n      swap1\n      pop\n      jump\t// out\n        /* \"#utility.yul\":1259:1377   */\n    tag_70:\n        /* \"#utility.yul\":1346:1370   */\n      tag_107\n        /* \"#utility.yul\":1364:1369   */\n      dup2\n        /* \"#utility.yul\":1346:1370   */\n      tag_69\n      jump\t// in\n    tag_107:\n        /* \"#utility.yul\":1341:1344   */\n      dup3\n        /* \"#utility.yul\":1334:1371   */\n      mstore\n        /* \"#utility.yul\":1259:1377   */\n      pop\n      pop\n      jump\t// out\n        /* \"#utility.yul\":1383:1605   */\n    tag_14:\n        /* \"#utility.yul\":1476:1480   */\n      0x00\n        /* \"#utility.yul\":1514:1516   */\n      0x20\n        /* \"#utility.yul\":1503:1512   */\n      dup3\n        /* \"#utility.yul\":1499:1517   */\n      add\n        /* \"#utility.yul\":1491:1517   */\n      swap1\n      pop\n        /* \"#utility.yul\":1527:1598   */\n      tag_109\n        /* \"#utility.yul\":1595:1596   */\n      0x00\n        /* \"#utility.yul\":1584:1593   */\n      dup4\n        /* \"#utility.yul\":1580:1597   */\n      add\n        /* \"#utility.yul\":1571:1577   */\n      dup5\n        /* \"#utility.yul\":1527:1598   */\n      tag_70\n      jump\t// in\n    tag_109:\n        /* \"#utility.yul\":1383:1605   */\n      swap3\n      swap2\n      pop\n      pop\n      jump\t// out\n        /* \"#utility.yul\":1611:1729   */\n    tag_71:\n        /* \"#utility.yul\":1698:1722   */\n      tag_111\n        /* \"#utility.yul\":1716:1721   */\n      dup2\n        /* \"#utility.yul\":1698:1722   */\n      tag_66\n      jump\t// in\n    tag_111:\n        /* \"#utility.yul\":1693:1696   */\n      dup3\n        /* \"#utility.yul\":1686:1723   */\n      mstore\n        /* \"#utility.yul\":1611:1729   */\n      pop\n      pop\n      jump\t// out\n        /* \"#utility.yul\":1735:1957   */\n    tag_19:\n        /* \"#utility.yul\":1828:1832   */\n      0x00\n        /* \"#utility.yul\":1866:1868   */\n      0x20\n        /* \"#utility.yul\":1855:1864   */\n      dup3\n        /* \"#utility.yul\":1851:1869   */\n      add\n        /* \"#utility.yul\":1843:1869   */\n      swap1\n      pop\n        /* \"#utility.yul\":1879:1950   */\n      tag_113\n        /* \"#utility.yul\":1947:1948   */\n      0x00\n        /* \"#utility.yul\":1936:1945   */\n      dup4\n        /* \"#utility.yul\":1932:1949   */\n      add\n        /* \"#utility.yul\":1923:1929   */\n      dup5\n        /* \"#utility.yul\":1879:1950   */\n      tag_71\n      jump\t// in\n    tag_113:\n        /* \"#utility.yul\":1735:1957   */\n      swap3\n      swap2\n      pop\n      pop\n      jump\t// out\n        /* \"#utility.yul\":1963:2039   */\n    tag_72:\n        /* \"#utility.yul\":1999:2006   */\n      0x00\n        /* \"#utility.yul\":2028:2033   */\n      dup2\n        /* \"#utility.yul\":2017:2033   */\n      swap1\n      pop\n        /* \"#utility.yul\":1963:2039   */\n      swap2\n      swap1\n      pop\n      jump\t// out\n        /* \"#utility.yul\":2045:2160   */\n    tag_73:\n        /* \"#utility.yul\":2130:2153   */\n      tag_116\n        /* \"#utility.yul\":2147:2152   */\n      dup2\n        /* \"#utility.yul\":2130:2153   */\n      tag_72\n      jump\t// in\n    tag_116:\n        /* \"#utility.yul\":2125:2128   */\n      dup3\n        /* \"#utility.yul\":2118:2154   */\n      mstore\n        /* \"#utility.yul\":2045:2160   */\n      pop\n      pop\n      jump\t// out\n        /* \"#utility.yul\":2166:2384   */\n    tag_29:\n        /* \"#utility.yul\":2257:2261   */\n      0x00\n        /* \"#utility.yul\":2295:2297   */\n      0x20\n        /* \"#utility.yul\":2284:2293   */\n      dup3\n        /* \"#utility.yul\":2280:2298   */\n      add\n        /* \"#utility.yul\":2272:2298   */\n      swap1\n      pop\n        /* \"#utility.yul\":2308:2377   */\n      tag_118\n        /* \"#utility.yul\":2374:2375   */\n      0x00\n        /* \"#utility.yul\":2363:2372   */\n      dup4\n        /* \"#utility.yul\":2359:2376   */\n      add\n        /* \"#utility.yul\":2350:2356   */\n      dup5\n        /* \"#utility.yul\":2308:2377   */\n      tag_73\n      jump\t// in\n    tag_118:\n        /* \"#utility.yul\":2166:2384   */\n      swap3\n      swap2\n      pop\n      pop\n      jump\t// out\n        /* \"#utility.yul\":2390:2559   */\n    tag_74:\n        /* \"#utility.yul\":2474:2485   */\n      0x00\n        /* \"#utility.yul\":2508:2514   */\n      dup3\n        /* \"#utility.yul\":2503:2506   */\n      dup3\n        /* \"#utility.yul\":2496:2515   */\n      mstore\n        /* \"#utility.yul\":2548:2552   */\n      0x20\n        /* \"#utility.yul\":2543:2546   */\n      dup3\n        /* \"#utility.yul\":2539:2553   */\n      add\n        /* \"#utility.yul\":2524:2553   */\n      swap1\n      pop\n        /* \"#utility.yul\":2390:2559   */\n      swap3\n      swap2\n      pop\n      pop\n      jump\t// out\n        /* \"#utility.yul\":2565:2736   */\n    tag_75:\n        /* \"#utility.yul\":2705:2728   */\n      0x546172676574206973206e6f7420726561636865640000000000000000000000\n        /* \"#utility.yul\":2701:2702   */\n      0x00\n        /* \"#utility.yul\":2693:2699   */\n      dup3\n        /* \"#utility.yul\":2689:2703   */\n      add\n        /* \"#utility.yul\":2682:2729   */\n      mstore\n        /* \"#utility.yul\":2565:2736   */\n      pop\n      jump\t// out\n        /* \"#utility.yul\":2742:3108   */\n    tag_76:\n        /* \"#utility.yul\":2884:2887   */\n      0x00\n        /* \"#utility.yul\":2905:2972   */\n      tag_122\n        /* \"#utility.yul\":2969:2971   */\n      0x15\n        /* \"#utility.yul\":2964:2967   */\n      dup4\n        /* \"#utility.yul\":2905:2972   */\n      tag_74\n      jump\t// in\n    tag_122:\n        /* \"#utility.yul\":2898:2972   */\n      swap2\n      pop\n        /* \"#utility.yul\":2981:3074   */\n      tag_123\n        /* \"#utility.yul\":3070:3073   */\n      dup3\n        /* \"#utility.yul\":2981:3074   */\n      tag_75\n      jump\t// in\n    tag_123:\n        /* \"#utility.yul\":3099:3101   */\n      0x20\n        /* \"#utility.yul\":3094:3097   */\n      dup3\n        /* \"#utility.yul\":3090:3102   */\n      add\n        /* \"#utility.yul\":3083:3102   */\n      swap1\n      pop\n        /* \"#utility.yul\":2742:3108   */\n      swap2\n      swap1\n      pop\n      jump\t// out\n        /* \"#utility.yul\":3114:3533   */\n    tag_39:\n        /* \"#utility.yul\":3280:3284   */\n      0x00\n        /* \"#utility.yul\":3318:3320   */\n      0x20\n        /* \"#utility.yul\":3307:3316   */\n      dup3\n        /* \"#utility.yul\":3303:3321   */\n      add\n        /* \"#utility.yul\":3295:3321   */\n      swap1\n      pop\n        /* \"#utility.yul\":3367:3376   */\n      dup2\n        /* \"#utility.yul\":3361:3365   */\n      dup2\n        /* \"#utility.yul\":3357:3377   */\n      sub\n        /* \"#utility.yul\":3353:3354   */\n      0x00\n        /* \"#utility.yul\":3342:3351   */\n      dup4\n        /* \"#utility.yul\":3338:3355   */\n      add\n        /* \"#utility.yul\":3331:3378   */\n      mstore\n        /* \"#utility.yul\":3395:3526   */\n      tag_125\n        /* \"#utility.yul\":3521:3525   */\n      dup2\n        /* \"#utility.yul\":3395:3526   */\n      tag_76\n      jump\t// in\n    tag_125:\n        /* \"#utility.yul\":3387:3526   */\n      swap1\n      pop\n        /* \"#utility.yul\":3114:3533   */\n      swap2\n      swap1\n      pop\n      jump\t// out\n        /* \"#utility.yul\":3539:3767   */\n    tag_77:\n        /* \"#utility.yul\":3679:3713   */\n      0x746869732066756e6374696f6e2063616e206f6e6c792062652063616c6c6564\n        /* \"#utility.yul\":3675:3676   */\n      0x00\n        /* \"#utility.yul\":3667:3673   */\n      dup3\n        /* \"#utility.yul\":3663:3677   */\n      add\n        /* \"#utility.yul\":3656:3714   */\n      mstore\n        /* \"#utility.yul\":3748:3759   */\n      0x206279206f776e65720000000000000000000000000000000000000000000000\n        /* \"#utility.yul\":3743:3745   */\n      0x20\n        /* \"#utility.yul\":3735:3741   */\n      dup3\n        /* \"#utility.yul\":3731:3746   */\n      add\n        /* \"#utility.yul\":3724:3760   */\n      mstore\n        /* \"#utility.yul\":3539:3767   */\n      pop\n      jump\t// out\n        /* \"#utility.yul\":3773:4139   */\n    tag_78:\n        /* \"#utility.yul\":3915:3918   */\n      0x00\n        /* \"#utility.yul\":3936:4003   */\n      tag_128\n        /* \"#utility.yul\":4000:4002   */\n      0x29\n        /* \"#utility.yul\":3995:3998   */\n      dup4\n        /* \"#utility.yul\":3936:4003   */\n      tag_74\n      jump\t// in\n    tag_128:\n        /* \"#utility.yul\":3929:4003   */\n      swap2\n      pop\n        /* \"#utility.yul\":4012:4105   */\n      tag_129\n        /* \"#utility.yul\":4101:4104   */\n      dup3\n        /* \"#utility.yul\":4012:4105   */\n      tag_77\n      jump\t// in\n    tag_129:\n        /* \"#utility.yul\":4130:4132   */\n      0x40\n        /* \"#utility.yul\":4125:4128   */\n      dup3\n        /* \"#utility.yul\":4121:4133   */\n      add\n        /* \"#utility.yul\":4114:4133   */\n      swap1\n      pop\n        /* \"#utility.yul\":3773:4139   */\n      swap2\n      swap1\n      pop\n      jump\t// out\n        /* \"#utility.yul\":4145:4564   */\n    tag_44:\n        /* \"#utility.yul\":4311:4315   */\n      0x00\n        /* \"#utility.yul\":4349:4351   */\n      0x20\n        /* \"#utility.yul\":4338:4347   */\n      dup3\n        /* \"#utility.yul\":4334:4352   */\n      add\n        /* \"#utility.yul\":4326:4352   */\n      swap1\n      pop\n        /* \"#utility.yul\":4398:4407   */\n      dup2\n        /* \"#utility.yul\":4392:4396   */\n      dup2\n        /* \"#utility.yul\":4388:4408   */\n      sub\n        /* \"#utility.yul\":4384:4385   */\n      0x00\n        /* \"#utility.yul\":4373:4382   */\n      dup4\n        /* \"#utility.yul\":4369:4386   */\n      add\n        /* \"#utility.yul\":4362:4409   */\n      mstore\n        /* \"#utility.yul\":4426:4557   */\n      tag_131\n        /* \"#utility.yul\":4552:4556   */\n      dup2\n        /* \"#utility.yul\":4426:4557   */\n      tag_78\n      jump\t// in\n    tag_131:\n        /* \"#utility.yul\":4418:4557   */\n      swap1\n      pop\n        /* \"#utility.yul\":4145:4564   */\n      swap2\n      swap1\n      pop\n      jump\t// out\n        /* \"#utility.yul\":4570:4733   */\n    tag_79:\n        /* \"#utility.yul\":4710:4725   */\n      0x73656e64206d6f72652045544800000000000000000000000000000000000000\n        /* \"#utility.yul\":4706:4707   */\n      0x00\n        /* \"#utility.yul\":4698:4704   */\n      dup3\n        /* \"#utility.yul\":4694:4708   */\n      add\n        /* \"#utility.yul\":4687:4726   */\n      mstore\n        /* \"#utility.yul\":4570:4733   */\n      pop\n      jump\t// out\n        /* \"#utility.yul\":4739:5105   */\n    tag_80:\n        /* \"#utility.yul\":4881:4884   */\n      0x00\n        /* \"#utility.yul\":4902:4969   */\n      tag_134\n        /* \"#utility.yul\":4966:4968   */\n      0x0d\n        /* \"#utility.yul\":4961:4964   */\n      dup4\n        /* \"#utility.yul\":4902:4969   */\n      tag_74\n      jump\t// in\n    tag_134:\n        /* \"#utility.yul\":4895:4969   */\n      swap2\n      pop\n        /* \"#utility.yul\":4978:5071   */\n      tag_135\n        /* \"#utility.yul\":5067:5070   */\n      dup3\n        /* \"#utility.yul\":4978:5071   */\n      tag_79\n      jump\t// in\n    tag_135:\n        /* \"#utility.yul\":5096:5098   */\n      0x20\n        /* \"#utility.yul\":5091:5094   */\n      dup3\n        /* \"#utility.yul\":5087:5099   */\n      add\n        /* \"#utility.yul\":5080:5099   */\n      swap1\n      pop\n        /* \"#utility.yul\":4739:5105   */\n      swap2\n      swap1\n      pop\n      jump\t// out\n        /* \"#utility.yul\":5111:5530   */\n    tag_49:\n        /* \"#utility.yul\":5277:5281   */\n      0x00\n        /* \"#utility.yul\":5315:5317   */\n      0x20\n        /* \"#utility.yul\":5304:5313   */\n      dup3\n        /* \"#utility.yul\":5300:5318   */\n      add\n        /* \"#utility.yul\":5292:5318   */\n      swap1\n      pop\n        /* \"#utility.yul\":5364:5373   */\n      dup2\n        /* \"#utility.yul\":5358:5362   */\n      dup2\n        /* \"#utility.yul\":5354:5374   */\n      sub\n        /* \"#utility.yul\":5350:5351   */\n      0x00\n        /* \"#utility.yul\":5339:5348   */\n      dup4\n        /* \"#utility.yul\":5335:5352   */\n      add\n        /* \"#utility.yul\":5328:5375   */\n      mstore\n        /* \"#utility.yul\":5392:5523   */\n      tag_137\n        /* \"#utility.yul\":5518:5522   */\n      dup2\n        /* \"#utility.yul\":5392:5523   */\n      tag_80\n      jump\t// in\n    tag_137:\n        /* \"#utility.yul\":5384:5523   */\n      swap1\n      pop\n        /* \"#utility.yul\":5111:5530   */\n      swap2\n      swap1\n      pop\n      jump\t// out\n        /* \"#utility.yul\":5536:5641   */\n    tag_81:\n        /* \"#utility.yul\":5572:5579   */\n      0x00\n        /* \"#utility.yul\":5612:5634   */\n      0xffffffffffffffffffff\n        /* \"#utility.yul\":5605:5610   */\n      dup3\n        /* \"#utility.yul\":5601:5635   */\n      and\n        /* \"#utility.yul\":5590:5635   */\n      swap1\n      pop\n        /* \"#utility.yul\":5536:5641   */\n      swap2\n      swap1\n      pop\n      jump\t// out\n        /* \"#utility.yul\":5647:5767   */\n    tag_82:\n        /* \"#utility.yul\":5719:5742   */\n      tag_140\n        /* \"#utility.yul\":5736:5741   */\n      dup2\n        /* \"#utility.yul\":5719:5742   */\n      tag_81\n      jump\t// in\n    tag_140:\n        /* \"#utility.yul\":5712:5717   */\n      dup2\n        /* \"#utility.yul\":5709:5743   */\n      eq\n        /* \"#utility.yul\":5699:5761   */\n      tag_141\n      jumpi\n        /* \"#utility.yul\":5757:5758   */\n      0x00\n        /* \"#utility.yul\":5754:5755   */\n      dup1\n        /* \"#utility.yul\":5747:5759   */\n      revert\n        /* \"#utility.yul\":5699:5761   */\n    tag_141:\n        /* \"#utility.yul\":5647:5767   */\n      pop\n      jump\t// out\n        /* \"#utility.yul\":5773:5914   */\n    tag_83:\n        /* \"#utility.yul\":5829:5834   */\n      0x00\n        /* \"#utility.yul\":5860:5866   */\n      dup2\n        /* \"#utility.yul\":5854:5867   */\n      mload\n        /* \"#utility.yul\":5845:5867   */\n      swap1\n      pop\n        /* \"#utility.yul\":5876:5908   */\n      tag_143\n        /* \"#utility.yul\":5902:5907   */\n      dup2\n        /* \"#utility.yul\":5876:5908   */\n      tag_82\n      jump\t// in\n    tag_143:\n        /* \"#utility.yul\":5773:5914   */\n      swap3\n      swap2\n      pop\n      pop\n      jump\t// out\n        /* \"#utility.yul\":5920:6040   */\n    tag_84:\n        /* \"#utility.yul\":5992:6015   */\n      tag_145\n        /* \"#utility.yul\":6009:6014   */\n      dup2\n        /* \"#utility.yul\":5992:6015   */\n      tag_72\n      jump\t// in\n    tag_145:\n        /* \"#utility.yul\":5985:5990   */\n      dup2\n        /* \"#utility.yul\":5982:6016   */\n      eq\n        /* \"#utility.yul\":5972:6034   */\n      tag_146\n      jumpi\n        /* \"#utility.yul\":6030:6031   */\n      0x00\n        /* \"#utility.yul\":6027:6028   */\n      dup1\n        /* \"#utility.yul\":6020:6032   */\n      revert\n        /* \"#utility.yul\":5972:6034   */\n    tag_146:\n        /* \"#utility.yul\":5920:6040   */\n      pop\n      jump\t// out\n        /* \"#utility.yul\":6046:6187   */\n    tag_85:\n        /* \"#utility.yul\":6102:6107   */\n      0x00\n        /* \"#utility.yul\":6133:6139   */\n      dup2\n        /* \"#utility.yul\":6127:6140   */\n      mload\n        /* \"#utility.yul\":6118:6140   */\n      swap1\n      pop\n        /* \"#utility.yul\":6149:6181   */\n      tag_148\n        /* \"#utility.yul\":6175:6180   */\n      dup2\n        /* \"#utility.yul\":6149:6181   */\n      tag_84\n      jump\t// in\n    tag_148:\n        /* \"#utility.yul\":6046:6187   */\n      swap3\n      swap2\n      pop\n      pop\n      jump\t// out\n        /* \"#utility.yul\":6193:6315   */\n    tag_86:\n        /* \"#utility.yul\":6266:6290   */\n      tag_150\n        /* \"#utility.yul\":6284:6289   */\n      dup2\n        /* \"#utility.yul\":6266:6290   */\n      tag_69\n      jump\t// in\n    tag_150:\n        /* \"#utility.yul\":6259:6264   */\n      dup2\n        /* \"#utility.yul\":6256:6291   */\n      eq\n        /* \"#utility.yul\":6246:6309   */\n      tag_151\n      jumpi\n        /* \"#utility.yul\":6305:6306   */\n      0x00\n        /* \"#utility.yul\":6302:6303   */\n      dup1\n        /* \"#utility.yul\":6295:6307   */\n      revert\n        /* \"#utility.yul\":6246:6309   */\n    tag_151:\n        /* \"#utility.yul\":6193:6315   */\n      pop\n      jump\t// out\n        /* \"#utility.yul\":6321:6464   */\n    tag_87:\n        /* \"#utility.yul\":6378:6383   */\n      0x00\n        /* \"#utility.yul\":6409:6415   */\n      dup2\n        /* \"#utility.yul\":6403:6416   */\n      mload\n        /* \"#utility.yul\":6394:6416   */\n      swap1\n      pop\n        /* \"#utility.yul\":6425:6458   */\n      tag_153\n        /* \"#utility.yul\":6452:6457   */\n      dup2\n        /* \"#utility.yul\":6425:6458   */\n      tag_86\n      jump\t// in\n    tag_153:\n        /* \"#utility.yul\":6321:6464   */\n      swap3\n      swap2\n      pop\n      pop\n      jump\t// out\n        /* \"#utility.yul\":6470:7441   */\n    tag_54:\n        /* \"#utility.yul\":6573:6579   */\n      0x00\n        /* \"#utility.yul\":6581:6587   */\n      dup1\n        /* \"#utility.yul\":6589:6595   */\n      0x00\n        /* \"#utility.yul\":6597:6603   */\n      dup1\n        /* \"#utility.yul\":6605:6611   */\n      0x00\n        /* \"#utility.yul\":6654:6657   */\n      0xa0\n        /* \"#utility.yul\":6642:6651   */\n      dup7\n        /* \"#utility.yul\":6633:6640   */\n      dup9\n        /* \"#utility.yul\":6629:6652   */\n      sub\n        /* \"#utility.yul\":6625:6658   */\n      slt\n        /* \"#utility.yul\":6622:6742   */\n      iszero\n      tag_155\n      jumpi\n        /* \"#utility.yul\":6661:6740   */\n      tag_156\n      tag_63\n      jump\t// in\n    tag_156:\n        /* \"#utility.yul\":6622:6742   */\n    tag_155:\n        /* \"#utility.yul\":6781:6782   */\n      0x00\n        /* \"#utility.yul\":6806:6869   */\n      tag_157\n        /* \"#utility.yul\":6861:6868   */\n      dup9\n        /* \"#utility.yul\":6852:6858   */\n      dup3\n        /* \"#utility.yul\":6841:6850   */\n      dup10\n        /* \"#utility.yul\":6837:6859   */\n      add\n        /* \"#utility.yul\":6806:6869   */\n      tag_83\n      jump\t// in\n    tag_157:\n        /* \"#utility.yul\":6796:6869   */\n      swap6\n      pop\n        /* \"#utility.yul\":6752:6879   */\n      pop\n        /* \"#utility.yul\":6918:6920   */\n      0x20\n        /* \"#utility.yul\":6944:7007   */\n      tag_158\n        /* \"#utility.yul\":6999:7006   */\n      dup9\n        /* \"#utility.yul\":6990:6996   */\n      dup3\n        /* \"#utility.yul\":6979:6988   */\n      dup10\n        /* \"#utility.yul\":6975:6997   */\n      add\n        /* \"#utility.yul\":6944:7007   */\n      tag_85\n      jump\t// in\n    tag_158:\n        /* \"#utility.yul\":6934:7007   */\n      swap5\n      pop\n        /* \"#utility.yul\":6889:7017   */\n      pop\n        /* \"#utility.yul\":7056:7058   */\n      0x40\n        /* \"#utility.yul\":7082:7146   */\n      tag_159\n        /* \"#utility.yul\":7138:7145   */\n      dup9\n        /* \"#utility.yul\":7129:7135   */\n      dup3\n        /* \"#utility.yul\":7118:7127   */\n      dup10\n        /* \"#utility.yul\":7114:7136   */\n      add\n        /* \"#utility.yul\":7082:7146   */\n      tag_87\n      jump\t// in\n    tag_159:\n        /* \"#utility.yul\":7072:7146   */\n      swap4\n      pop\n        /* \"#utility.yul\":7027:7156   */\n      pop\n        /* \"#utility.yul\":7195:7197   */\n      0x60\n        /* \"#utility.yul\":7221:7285   */\n      tag_160\n        /* \"#utility.yul\":7277:7284   */\n      dup9\n        /* \"#utility.yul\":7268:7274   */\n      dup3\n        /* \"#utility.yul\":7257:7266   */\n      dup10\n        /* \"#utility.yul\":7253:7275   */\n      add\n        /* \"#utility.yul\":7221:7285   */\n      tag_87\n      jump\t// in\n    tag_160:\n        /* \"#utility.yul\":7211:7285   */\n      swap3\n      pop\n        /* \"#utility.yul\":7166:7295   */\n      pop\n        /* \"#utility.yul\":7334:7337   */\n      0x80\n        /* \"#utility.yul\":7361:7424   */\n      tag_161\n        /* \"#utility.yul\":7416:7423   */\n      dup9\n        /* \"#utility.yul\":7407:7413   */\n      dup3\n        /* \"#utility.yul\":7396:7405   */\n      dup10\n        /* \"#utility.yul\":7392:7414   */\n      add\n        /* \"#utility.yul\":7361:7424   */\n      tag_83\n      jump\t// in\n    tag_161:\n        /* \"#utility.yul\":7351:7424   */\n      swap2\n      pop\n        /* \"#utility.yul\":7305:7434   */\n      pop\n        /* \"#utility.yul\":6470:7441   */\n      swap3\n      swap6\n      pop\n      swap3\n      swap6\n      swap1\n      swap4\n      pop\n      jump\t// out\n        /* \"#utility.yul\":7447:7627   */\n    tag_88:\n        /* \"#utility.yul\":7495:7572   */\n      0x4e487b7100000000000000000000000000000000000000000000000000000000\n        /* \"#utility.yul\":7492:7493   */\n      0x00\n        /* \"#utility.yul\":7485:7573   */\n      mstore\n        /* \"#utility.yul\":7592:7596   */\n      0x11\n        /* \"#utility.yul\":7589:7590   */\n      0x04\n        /* \"#utility.yul\":7582:7597   */\n      mstore\n        /* \"#utility.yul\":7616:7620   */\n      0x24\n        /* \"#utility.yul\":7613:7614   */\n      0x00\n        /* \"#utility.yul\":7606:7621   */\n      revert\n        /* \"#utility.yul\":7633:8043   */\n    tag_61:\n        /* \"#utility.yul\":7673:7680   */\n      0x00\n        /* \"#utility.yul\":7696:7716   */\n      tag_164\n        /* \"#utility.yul\":7714:7715   */\n      dup3\n        /* \"#utility.yul\":7696:7716   */\n      tag_69\n      jump\t// in\n    tag_164:\n        /* \"#utility.yul\":7691:7716   */\n      swap2\n      pop\n        /* \"#utility.yul\":7730:7750   */\n      tag_165\n        /* \"#utility.yul\":7748:7749   */\n      dup4\n        /* \"#utility.yul\":7730:7750   */\n      tag_69\n      jump\t// in\n    tag_165:\n        /* \"#utility.yul\":7725:7750   */\n      swap3\n      pop\n        /* \"#utility.yul\":7785:7786   */\n      dup3\n        /* \"#utility.yul\":7782:7783   */\n      dup3\n        /* \"#utility.yul\":7778:7787   */\n      mul\n        /* \"#utility.yul\":7807:7837   */\n      tag_166\n        /* \"#utility.yul\":7825:7836   */\n      dup2\n        /* \"#utility.yul\":7807:7837   */\n      tag_69\n      jump\t// in\n    tag_166:\n        /* \"#utility.yul\":7796:7837   */\n      swap2\n      pop\n        /* \"#utility.yul\":7986:7987   */\n      dup3\n        /* \"#utility.yul\":7977:7984   */\n      dup3\n        /* \"#utility.yul\":7973:7988   */\n      div\n        /* \"#utility.yul\":7970:7971   */\n      dup5\n        /* \"#utility.yul\":7967:7989   */\n      eq\n        /* \"#utility.yul\":7947:7948   */\n      dup4\n        /* \"#utility.yul\":7940:7949   */\n      iszero\n        /* \"#utility.yul\":7920:8003   */\n      or\n        /* \"#utility.yul\":7897:8036   */\n      tag_167\n      jumpi\n        /* \"#utility.yul\":8016:8034   */\n      tag_168\n      tag_88\n      jump\t// in\n    tag_168:\n        /* \"#utility.yul\":7897:8036   */\n    tag_167:\n        /* \"#utility.yul\":7681:8043   */\n      pop\n        /* \"#utility.yul\":7633:8043   */\n      swap3\n      swap2\n      pop\n      pop\n      jump\t// out\n\n    auxdata: 0xa2646970667358221220920d8d0576ca043e07d25154faed804c605eec53bdba4351bdd1055f4f45f85464736f6c634300081a0033\n}\n",
				"bytecode": {
					"linkReferences": {},
					"object": "608060405268056bc75e2d63100000600155348015601b575f80fd5b503360035f6101000a81548173ffffffffffffffffffffffffffffffffffffffff021916908373ffffffffffffffffffffffffffffffffffffffff16021790555073694aa1769357215de4fac081bf1f309adc32530660025f6101000a81548173ffffffffffffffffffffffffffffffffffffffff021916908373ffffffffffffffffffffffffffffffffffffffff1602179055506108df806100bd5f395ff3fe608060405260043610610054575f3560e01c806301fa9ffb146100585780638da5cb5b146100945780638edd6eb6146100be578063b60d4288146100d4578063bea4dfb5146100de578063f2fde38b14610108575b5f80fd5b348015610063575f80fd5b5061007e6004803603810190610079919061050e565b610130565b60405161008b9190610551565b60405180910390f35b34801561009f575f80fd5b506100a8610144565b6040516100b59190610579565b60405180910390f35b3480156100c9575f80fd5b506100d2610169565b005b6100dc610292565b005b3480156100e9575f80fd5b506100f2610321565b6040516100ff91906105aa565b60405180910390f35b348015610113575f80fd5b5061012e6004803603810190610129919061050e565b6103be565b005b5f602052805f5260405f205f915090505481565b60035f9054906101000a900473ffffffffffffffffffffffffffffffffffffffff1681565b683635c9adc5dea0000061017c47610490565b10156101bd576040517f08c379a00000000000000000000000000000000000000000000000000000000081526004016101b49061061d565b60405180910390fd5b3373ffffffffffffffffffffffffffffffffffffffff166108fc4790811502906040515f60405180830381858888f19350505050158015610200573d5f803e3d5ffd5b5060035f9054906101000a900473ffffffffffffffffffffffffffffffffffffffff1673ffffffffffffffffffffffffffffffffffffffff163373ffffffffffffffffffffffffffffffffffffffff1614610290576040517f08c379a0000000000000000000000000000000000000000000000000000000008152600401610287906106ab565b60405180910390fd5b565b60015461029e34610490565b116102de576040517f08c379a00000000000000000000000000000000000000000000000000000000081526004016102d590610713565b60405180910390fd5b345f803373ffffffffffffffffffffffffffffffffffffffff1673ffffffffffffffffffffffffffffffffffffffff1681526020019081526020015f2081905550565b5f8060025f9054906101000a900473ffffffffffffffffffffffffffffffffffffffff1673ffffffffffffffffffffffffffffffffffffffff1663feaf968c6040518163ffffffff1660e01b815260040160a060405180830381865afa15801561038d573d5f803e3d5ffd5b505050506040513d601f19601f820116820180604052508101906103b191906107c4565b5050509150508091505090565b60035f9054906101000a900473ffffffffffffffffffffffffffffffffffffffff1673ffffffffffffffffffffffffffffffffffffffff163373ffffffffffffffffffffffffffffffffffffffff161461044d576040517f08c379a0000000000000000000000000000000000000000000000000000000008152600401610444906106ab565b60405180910390fd5b8060035f6101000a81548173ffffffffffffffffffffffffffffffffffffffff021916908373ffffffffffffffffffffffffffffffffffffffff16021790555050565b5f8061049a610321565b905082816104a89190610868565b915050919050565b5f80fd5b5f73ffffffffffffffffffffffffffffffffffffffff82169050919050565b5f6104dd826104b4565b9050919050565b6104ed816104d3565b81146104f7575f80fd5b50565b5f81359050610508816104e4565b92915050565b5f60208284031215610523576105226104b0565b5b5f610530848285016104fa565b91505092915050565b5f819050919050565b61054b81610539565b82525050565b5f6020820190506105645f830184610542565b92915050565b610573816104d3565b82525050565b5f60208201905061058c5f83018461056a565b92915050565b5f819050919050565b6105a481610592565b82525050565b5f6020820190506105bd5f83018461059b565b92915050565b5f82825260208201905092915050565b7f546172676574206973206e6f74207265616368656400000000000000000000005f82015250565b5f6106076015836105c3565b9150610612826105d3565b602082019050919050565b5f6020820190508181035f830152610634816105fb565b9050919050565b7f746869732066756e6374696f6e2063616e206f6e6c792062652063616c6c65645f8201527f206279206f776e65720000000000000000000000000000000000000000000000602082015250565b5f6106956029836105c3565b91506106a08261063b565b604082019050919050565b5f6020820190508181035f8301526106c281610689565b9050919050565b7f73656e64206d6f726520455448000000000000000000000000000000000000005f82015250565b5f6106fd600d836105c3565b9150610708826106c9565b602082019050919050565b5f6020820190508181035f83015261072a816106f1565b9050919050565b5f69ffffffffffffffffffff82169050919050565b61074f81610731565b8114610759575f80fd5b50565b5f8151905061076a81610746565b92915050565b61077981610592565b8114610783575f80fd5b50565b5f8151905061079481610770565b92915050565b6107a381610539565b81146107ad575f80fd5b50565b5f815190506107be8161079a565b92915050565b5f805f805f60a086880312156107dd576107dc6104b0565b5b5f6107ea8882890161075c565b95505060206107fb88828901610786565b945050604061080c888289016107b0565b935050606061081d888289016107b0565b925050608061082e8882890161075c565b9150509295509295909350565b7f4e487b71000000000000000000000000000000000000000000000000000000005f52601160045260245ffd5b5f61087282610539565b915061087d83610539565b925082820261088b81610539565b915082820484148315176108a2576108a161083b565b5b509291505056fea2646970667358221220920d8d0576ca043e07d25154faed804c605eec53bdba4351bdd1055f4f45f85464736f6c634300081a0033",
					"opcodes": "PUSH1 0x80 PUSH1 0x40 MSTORE PUSH9 0x56BC75E2D63100000 PUSH1 0x1 SSTORE CALLVALUE DUP1 ISZERO PUSH1 0x1B JUMPI PUSH0 DUP1 REVERT JUMPDEST POP CALLER PUSH1 0x3 PUSH0 PUSH2 0x100 EXP DUP2 SLOAD DUP2 PUSH20 0xFFFFFFFFFFFFFFFFFFFFFFFFFFFFFFFFFFFFFFFF MUL NOT AND SWAP1 DUP4 PUSH20 0xFFFFFFFFFFFFFFFFFFFFFFFFFFFFFFFFFFFFFFFF AND MUL OR SWAP1 SSTORE POP PUSH20 0x694AA1769357215DE4FAC081BF1F309ADC325306 PUSH1 0x2 PUSH0 PUSH2 0x100 EXP DUP2 SLOAD DUP2 PUSH20 0xFFFFFFFFFFFFFFFFFFFFFFFFFFFFFFFFFFFFFFFF MUL NOT AND SWAP1 DUP4 PUSH20 0xFFFFFFFFFFFFFFFFFFFFFFFFFFFFFFFFFFFFFFFF AND MUL OR SWAP1 SSTORE POP PUSH2 0x8DF DUP1 PUSH2 0xBD PUSH0 CODECOPY PUSH0 RETURN INVALID PUSH1 0x80 PUSH1 0x40 MSTORE PUSH1 0x4 CALLDATASIZE LT PUSH2 0x54 JUMPI PUSH0 CALLDATALOAD PUSH1 0xE0 SHR DUP1 PUSH4 0x1FA9FFB EQ PUSH2 0x58 JUMPI DUP1 PUSH4 0x8DA5CB5B EQ PUSH2 0x94 JUMPI DUP1 PUSH4 0x8EDD6EB6 EQ PUSH2 0xBE JUMPI DUP1 PUSH4 0xB60D4288 EQ PUSH2 0xD4 JUMPI DUP1 PUSH4 0xBEA4DFB5 EQ PUSH2 0xDE JUMPI DUP1 PUSH4 0xF2FDE38B EQ PUSH2 0x108 JUMPI JUMPDEST PUSH0 DUP1 REVERT JUMPDEST CALLVALUE DUP1 ISZERO PUSH2 0x63 JUMPI PUSH0 DUP1 REVERT JUMPDEST POP PUSH2 0x7E PUSH1 0x4 DUP1 CALLDATASIZE SUB DUP2 ADD SWAP1 PUSH2 0x79 SWAP2 SWAP1 PUSH2 0x50E JUMP JUMPDEST PUSH2 0x130 JUMP JUMPDEST PUSH1 0x40 MLOAD PUSH2 0x8B SWAP2 SWAP1 PUSH2 0x551 JUMP JUMPDEST PUSH1 0x40 MLOAD DUP1 SWAP2 SUB SWAP1 RETURN JUMPDEST CALLVALUE DUP1 ISZERO PUSH2 0x9F JUMPI PUSH0 DUP1 REVERT JUMPDEST POP PUSH2 0xA8 PUSH2 0x144 JUMP JUMPDEST PUSH1 0x40 MLOAD PUSH2 0xB5 SWAP2 SWAP1 PUSH2 0x579 JUMP JUMPDEST PUSH1 0x40 MLOAD DUP1 SWAP2 SUB SWAP1 RETURN JUMPDEST CALLVALUE DUP1 ISZERO PUSH2 0xC9 JUMPI PUSH0 DUP1 REVERT JUMPDEST POP PUSH2 0xD2 PUSH2 0x169 JUMP JUMPDEST STOP JUMPDEST PUSH2 0xDC PUSH2 0x292 JUMP JUMPDEST STOP JUMPDEST CALLVALUE DUP1 ISZERO PUSH2 0xE9 JUMPI PUSH0 DUP1 REVERT JUMPDEST POP PUSH2 0xF2 PUSH2 0x321 JUMP JUMPDEST PUSH1 0x40 MLOAD PUSH2 0xFF SWAP2 SWAP1 PUSH2 0x5AA JUMP JUMPDEST PUSH1 0x40 MLOAD DUP1 SWAP2 SUB SWAP1 RETURN JUMPDEST CALLVALUE DUP1 ISZERO PUSH2 0x113 JUMPI PUSH0 DUP1 REVERT JUMPDEST POP PUSH2 0x12E PUSH1 0x4 DUP1 CALLDATASIZE SUB DUP2 ADD SWAP1 PUSH2 0x129 SWAP2 SWAP1 PUSH2 0x50E JUMP JUMPDEST PUSH2 0x3BE JUMP JUMPDEST STOP JUMPDEST PUSH0 PUSH1 0x20 MSTORE DUP1 PUSH0 MSTORE PUSH1 0x40 PUSH0 KECCAK256 PUSH0 SWAP2 POP SWAP1 POP SLOAD DUP2 JUMP JUMPDEST PUSH1 0x3 PUSH0 SWAP1 SLOAD SWAP1 PUSH2 0x100 EXP SWAP1 DIV PUSH20 0xFFFFFFFFFFFFFFFFFFFFFFFFFFFFFFFFFFFFFFFF AND DUP2 JUMP JUMPDEST PUSH9 0x3635C9ADC5DEA00000 PUSH2 0x17C SELFBALANCE PUSH2 0x490 JUMP JUMPDEST LT ISZERO PUSH2 0x1BD JUMPI PUSH1 0x40 MLOAD PUSH32 0x8C379A000000000000000000000000000000000000000000000000000000000 DUP2 MSTORE PUSH1 0x4 ADD PUSH2 0x1B4 SWAP1 PUSH2 0x61D JUMP JUMPDEST PUSH1 0x40 MLOAD DUP1 SWAP2 SUB SWAP1 REVERT JUMPDEST CALLER PUSH20 0xFFFFFFFFFFFFFFFFFFFFFFFFFFFFFFFFFFFFFFFF AND PUSH2 0x8FC SELFBALANCE SWAP1 DUP2 ISZERO MUL SWAP1 PUSH1 0x40 MLOAD PUSH0 PUSH1 0x40 MLOAD DUP1 DUP4 SUB DUP2 DUP6 DUP9 DUP9 CALL SWAP4 POP POP POP POP ISZERO DUP1 ISZERO PUSH2 0x200 JUMPI RETURNDATASIZE PUSH0 DUP1 RETURNDATACOPY RETURNDATASIZE PUSH0 REVERT JUMPDEST POP PUSH1 0x3 PUSH0 SWAP1 SLOAD SWAP1 PUSH2 0x100 EXP SWAP1 DIV PUSH20 0xFFFFFFFFFFFFFFFFFFFFFFFFFFFFFFFFFFFFFFFF AND PUSH20 0xFFFFFFFFFFFFFFFFFFFFFFFFFFFFFFFFFFFFFFFF AND CALLER PUSH20 0xFFFFFFFFFFFFFFFFFFFFFFFFFFFFFFFFFFFFFFFF AND EQ PUSH2 0x290 JUMPI PUSH1 0x40 MLOAD PUSH32 0x8C379A000000000000000000000000000000000000000000000000000000000 DUP2 MSTORE PUSH1 0x4 ADD PUSH2 0x287 SWAP1 PUSH2 0x6AB JUMP JUMPDEST PUSH1 0x40 MLOAD DUP1 SWAP2 SUB SWAP1 REVERT JUMPDEST JUMP JUMPDEST PUSH1 0x1 SLOAD PUSH2 0x29E CALLVALUE PUSH2 0x490 JUMP JUMPDEST GT PUSH2 0x2DE JUMPI PUSH1 0x40 MLOAD PUSH32 0x8C379A000000000000000000000000000000000000000000000000000000000 DUP2 MSTORE PUSH1 0x4 ADD PUSH2 0x2D5 SWAP1 PUSH2 0x713 JUMP JUMPDEST PUSH1 0x40 MLOAD DUP1 SWAP2 SUB SWAP1 REVERT JUMPDEST CALLVALUE PUSH0 DUP1 CALLER PUSH20 0xFFFFFFFFFFFFFFFFFFFFFFFFFFFFFFFFFFFFFFFF AND PUSH20 0xFFFFFFFFFFFFFFFFFFFFFFFFFFFFFFFFFFFFFFFF AND DUP2 MSTORE PUSH1 0x20 ADD SWAP1 DUP2 MSTORE PUSH1 0x20 ADD PUSH0 KECCAK256 DUP2 SWAP1 SSTORE POP JUMP JUMPDEST PUSH0 DUP1 PUSH1 0x2 PUSH0 SWAP1 SLOAD SWAP1 PUSH2 0x100 EXP SWAP1 DIV PUSH20 0xFFFFFFFFFFFFFFFFFFFFFFFFFFFFFFFFFFFFFFFF AND PUSH20 0xFFFFFFFFFFFFFFFFFFFFFFFFFFFFFFFFFFFFFFFF AND PUSH4 0xFEAF968C PUSH1 0x40 MLOAD DUP2 PUSH4 0xFFFFFFFF AND PUSH1 0xE0 SHL DUP2 MSTORE PUSH1 0x4 ADD PUSH1 0xA0 PUSH1 0x40 MLOAD DUP1 DUP4 SUB DUP2 DUP7 GAS STATICCALL ISZERO DUP1 ISZERO PUSH2 0x38D JUMPI RETURNDATASIZE PUSH0 DUP1 RETURNDATACOPY RETURNDATASIZE PUSH0 REVERT JUMPDEST POP POP POP POP PUSH1 0x40 MLOAD RETURNDATASIZE PUSH1 0x1F NOT PUSH1 0x1F DUP3 ADD AND DUP3 ADD DUP1 PUSH1 0x40 MSTORE POP DUP2 ADD SWAP1 PUSH2 0x3B1 SWAP2 SWAP1 PUSH2 0x7C4 JUMP JUMPDEST POP POP POP SWAP2 POP POP DUP1 SWAP2 POP POP SWAP1 JUMP JUMPDEST PUSH1 0x3 PUSH0 SWAP1 SLOAD SWAP1 PUSH2 0x100 EXP SWAP1 DIV PUSH20 0xFFFFFFFFFFFFFFFFFFFFFFFFFFFFFFFFFFFFFFFF AND PUSH20 0xFFFFFFFFFFFFFFFFFFFFFFFFFFFFFFFFFFFFFFFF AND CALLER PUSH20 0xFFFFFFFFFFFFFFFFFFFFFFFFFFFFFFFFFFFFFFFF AND EQ PUSH2 0x44D JUMPI PUSH1 0x40 MLOAD PUSH32 0x8C379A000000000000000000000000000000000000000000000000000000000 DUP2 MSTORE PUSH1 0x4 ADD PUSH2 0x444 SWAP1 PUSH2 0x6AB JUMP JUMPDEST PUSH1 0x40 MLOAD DUP1 SWAP2 SUB SWAP1 REVERT JUMPDEST DUP1 PUSH1 0x3 PUSH0 PUSH2 0x100 EXP DUP2 SLOAD DUP2 PUSH20 0xFFFFFFFFFFFFFFFFFFFFFFFFFFFFFFFFFFFFFFFF MUL NOT AND SWAP1 DUP4 PUSH20 0xFFFFFFFFFFFFFFFFFFFFFFFFFFFFFFFFFFFFFFFF AND MUL OR SWAP1 SSTORE POP POP JUMP JUMPDEST PUSH0 DUP1 PUSH2 0x49A PUSH2 0x321 JUMP JUMPDEST SWAP1 POP DUP3 DUP2 PUSH2 0x4A8 SWAP2 SWAP1 PUSH2 0x868 JUMP JUMPDEST SWAP2 POP POP SWAP2 SWAP1 POP JUMP JUMPDEST PUSH0 DUP1 REVERT JUMPDEST PUSH0 PUSH20 0xFFFFFFFFFFFFFFFFFFFFFFFFFFFFFFFFFFFFFFFF DUP3 AND SWAP1 POP SWAP2 SWAP1 POP JUMP JUMPDEST PUSH0 PUSH2 0x4DD DUP3 PUSH2 0x4B4 JUMP JUMPDEST SWAP1 POP SWAP2 SWAP1 POP JUMP JUMPDEST PUSH2 0x4ED DUP2 PUSH2 0x4D3 JUMP JUMPDEST DUP2 EQ PUSH2 0x4F7 JUMPI PUSH0 DUP1 REVERT JUMPDEST POP JUMP JUMPDEST PUSH0 DUP2 CALLDATALOAD SWAP1 POP PUSH2 0x508 DUP2 PUSH2 0x4E4 JUMP JUMPDEST SWAP3 SWAP2 POP POP JUMP JUMPDEST PUSH0 PUSH1 0x20 DUP3 DUP5 SUB SLT ISZERO PUSH2 0x523 JUMPI PUSH2 0x522 PUSH2 0x4B0 JUMP JUMPDEST JUMPDEST PUSH0 PUSH2 0x530 DUP5 DUP3 DUP6 ADD PUSH2 0x4FA JUMP JUMPDEST SWAP2 POP POP SWAP3 SWAP2 POP POP JUMP JUMPDEST PUSH0 DUP2 SWAP1 POP SWAP2 SWAP1 POP JUMP JUMPDEST PUSH2 0x54B DUP2 PUSH2 0x539 JUMP JUMPDEST DUP3 MSTORE POP POP JUMP JUMPDEST PUSH0 PUSH1 0x20 DUP3 ADD SWAP1 POP PUSH2 0x564 PUSH0 DUP4 ADD DUP5 PUSH2 0x542 JUMP JUMPDEST SWAP3 SWAP2 POP POP JUMP JUMPDEST PUSH2 0x573 DUP2 PUSH2 0x4D3 JUMP JUMPDEST DUP3 MSTORE POP POP JUMP JUMPDEST PUSH0 PUSH1 0x20 DUP3 ADD SWAP1 POP PUSH2 0x58C PUSH0 DUP4 ADD DUP5 PUSH2 0x56A JUMP JUMPDEST SWAP3 SWAP2 POP POP JUMP JUMPDEST PUSH0 DUP2 SWAP1 POP SWAP2 SWAP1 POP JUMP JUMPDEST PUSH2 0x5A4 DUP2 PUSH2 0x592 JUMP JUMPDEST DUP3 MSTORE POP POP JUMP JUMPDEST PUSH0 PUSH1 0x20 DUP3 ADD SWAP1 POP PUSH2 0x5BD PUSH0 DUP4 ADD DUP5 PUSH2 0x59B JUMP JUMPDEST SWAP3 SWAP2 POP POP JUMP JUMPDEST PUSH0 DUP3 DUP3 MSTORE PUSH1 0x20 DUP3 ADD SWAP1 POP SWAP3 SWAP2 POP POP JUMP JUMPDEST PUSH32 0x546172676574206973206E6F7420726561636865640000000000000000000000 PUSH0 DUP3 ADD MSTORE POP JUMP JUMPDEST PUSH0 PUSH2 0x607 PUSH1 0x15 DUP4 PUSH2 0x5C3 JUMP JUMPDEST SWAP2 POP PUSH2 0x612 DUP3 PUSH2 0x5D3 JUMP JUMPDEST PUSH1 0x20 DUP3 ADD SWAP1 POP SWAP2 SWAP1 POP JUMP JUMPDEST PUSH0 PUSH1 0x20 DUP3 ADD SWAP1 POP DUP2 DUP2 SUB PUSH0 DUP4 ADD MSTORE PUSH2 0x634 DUP2 PUSH2 0x5FB JUMP JUMPDEST SWAP1 POP SWAP2 SWAP1 POP JUMP JUMPDEST PUSH32 0x746869732066756E6374696F6E2063616E206F6E6C792062652063616C6C6564 PUSH0 DUP3 ADD MSTORE PUSH32 0x206279206F776E65720000000000000000000000000000000000000000000000 PUSH1 0x20 DUP3 ADD MSTORE POP JUMP JUMPDEST PUSH0 PUSH2 0x695 PUSH1 0x29 DUP4 PUSH2 0x5C3 JUMP JUMPDEST SWAP2 POP PUSH2 0x6A0 DUP3 PUSH2 0x63B JUMP JUMPDEST PUSH1 0x40 DUP3 ADD SWAP1 POP SWAP2 SWAP1 POP JUMP JUMPDEST PUSH0 PUSH1 0x20 DUP3 ADD SWAP1 POP DUP2 DUP2 SUB PUSH0 DUP4 ADD MSTORE PUSH2 0x6C2 DUP2 PUSH2 0x689 JUMP JUMPDEST SWAP1 POP SWAP2 SWAP1 POP JUMP JUMPDEST PUSH32 0x73656E64206D6F72652045544800000000000000000000000000000000000000 PUSH0 DUP3 ADD MSTORE POP JUMP JUMPDEST PUSH0 PUSH2 0x6FD PUSH1 0xD DUP4 PUSH2 0x5C3 JUMP JUMPDEST SWAP2 POP PUSH2 0x708 DUP3 PUSH2 0x6C9 JUMP JUMPDEST PUSH1 0x20 DUP3 ADD SWAP1 POP SWAP2 SWAP1 POP JUMP JUMPDEST PUSH0 PUSH1 0x20 DUP3 ADD SWAP1 POP DUP2 DUP2 SUB PUSH0 DUP4 ADD MSTORE PUSH2 0x72A DUP2 PUSH2 0x6F1 JUMP JUMPDEST SWAP1 POP SWAP2 SWAP1 POP JUMP JUMPDEST PUSH0 PUSH10 0xFFFFFFFFFFFFFFFFFFFF DUP3 AND SWAP1 POP SWAP2 SWAP1 POP JUMP JUMPDEST PUSH2 0x74F DUP2 PUSH2 0x731 JUMP JUMPDEST DUP2 EQ PUSH2 0x759 JUMPI PUSH0 DUP1 REVERT JUMPDEST POP JUMP JUMPDEST PUSH0 DUP2 MLOAD SWAP1 POP PUSH2 0x76A DUP2 PUSH2 0x746 JUMP JUMPDEST SWAP3 SWAP2 POP POP JUMP JUMPDEST PUSH2 0x779 DUP2 PUSH2 0x592 JUMP JUMPDEST DUP2 EQ PUSH2 0x783 JUMPI PUSH0 DUP1 REVERT JUMPDEST POP JUMP JUMPDEST PUSH0 DUP2 MLOAD SWAP1 POP PUSH2 0x794 DUP2 PUSH2 0x770 JUMP JUMPDEST SWAP3 SWAP2 POP POP JUMP JUMPDEST PUSH2 0x7A3 DUP2 PUSH2 0x539 JUMP JUMPDEST DUP2 EQ PUSH2 0x7AD JUMPI PUSH0 DUP1 REVERT JUMPDEST POP JUMP JUMPDEST PUSH0 DUP2 MLOAD SWAP1 POP PUSH2 0x7BE DUP2 PUSH2 0x79A JUMP JUMPDEST SWAP3 SWAP2 POP POP JUMP JUMPDEST PUSH0 DUP1 PUSH0 DUP1 PUSH0 PUSH1 0xA0 DUP7 DUP9 SUB SLT ISZERO PUSH2 0x7DD JUMPI PUSH2 0x7DC PUSH2 0x4B0 JUMP JUMPDEST JUMPDEST PUSH0 PUSH2 0x7EA DUP9 DUP3 DUP10 ADD PUSH2 0x75C JUMP JUMPDEST SWAP6 POP POP PUSH1 0x20 PUSH2 0x7FB DUP9 DUP3 DUP10 ADD PUSH2 0x786 JUMP JUMPDEST SWAP5 POP POP PUSH1 0x40 PUSH2 0x80C DUP9 DUP3 DUP10 ADD PUSH2 0x7B0 JUMP JUMPDEST SWAP4 POP POP PUSH1 0x60 PUSH2 0x81D DUP9 DUP3 DUP10 ADD PUSH2 0x7B0 JUMP JUMPDEST SWAP3 POP POP PUSH1 0x80 PUSH2 0x82E DUP9 DUP3 DUP10 ADD PUSH2 0x75C JUMP JUMPDEST SWAP2 POP POP SWAP3 SWAP6 POP SWAP3 SWAP6 SWAP1 SWAP4 POP JUMP JUMPDEST PUSH32 0x4E487B7100000000000000000000000000000000000000000000000000000000 PUSH0 MSTORE PUSH1 0x11 PUSH1 0x4 MSTORE PUSH1 0x24 PUSH0 REVERT JUMPDEST PUSH0 PUSH2 0x872 DUP3 PUSH2 0x539 JUMP JUMPDEST SWAP2 POP PUSH2 0x87D DUP4 PUSH2 0x539 JUMP JUMPDEST SWAP3 POP DUP3 DUP3 MUL PUSH2 0x88B DUP2 PUSH2 0x539 JUMP JUMPDEST SWAP2 POP DUP3 DUP3 DIV DUP5 EQ DUP4 ISZERO OR PUSH2 0x8A2 JUMPI PUSH2 0x8A1 PUSH2 0x83B JUMP JUMPDEST JUMPDEST POP SWAP3 SWAP2 POP POP JUMP INVALID LOG2 PUSH5 0x6970667358 0x22 SLT KECCAK256 SWAP3 0xD DUP14 SDIV PUSH23 0xCA043E07D25154FAED804C605EEC53BDBA4351BDD1055F 0x4F GASLIMIT 0xF8 SLOAD PUSH5 0x736F6C6343 STOP ADDMOD BYTE STOP CALLER "
				},
				"gasEstimates": {
					"creation": {
						"codeDepositCost": "454200",
						"executionCost": "71121",
						"totalCost": "525321"
					},
					"external": {
						"fund()": "infinite",
						"funders2Amount(address)": "2779",
						"getChainlinkDataFeedLatestAnswer()": "infinite",
						"getFund()": "infinite",
						"owner()": "2508",
						"transferOwnership(address)": "26972"
					},
					"internal": {
						"convertETH2USD(uint256)": "infinite"
					}
				},
				"methodIdentifiers": {
					"fund()": "b60d4288",
					"funders2Amount(address)": "01fa9ffb",
					"getChainlinkDataFeedLatestAnswer()": "bea4dfb5",
					"getFund()": "8edd6eb6",
					"owner()": "8da5cb5b",
					"transferOwnership(address)": "f2fde38b"
				}
			},
			"storageLayout": {
				"storage": [
					{
						"astId": 53,
						"contract": "FundMe.sol:FundMe",
						"label": "funders2Amount",
						"offset": 0,
						"slot": "0",
						"type": "t_mapping(t_address,t_uint256)"
					},
					{
						"astId": 60,
						"contract": "FundMe.sol:FundMe",
						"label": "MINIMUM_VALUE",
						"offset": 0,
						"slot": "1",
						"type": "t_uint256"
					},
					{
						"astId": 63,
						"contract": "FundMe.sol:FundMe",
						"label": "dataFeed",
						"offset": 0,
						"slot": "2",
						"type": "t_contract(AggregatorV3Interface)45"
					},
					{
						"astId": 72,
						"contract": "FundMe.sol:FundMe",
						"label": "owner",
						"offset": 0,
						"slot": "3",
						"type": "t_address"
					}
				],
				"types": {
					"t_address": {
						"encoding": "inplace",
						"label": "address",
						"numberOfBytes": "20"
					},
					"t_contract(AggregatorV3Interface)45": {
						"encoding": "inplace",
						"label": "contract AggregatorV3Interface",
						"numberOfBytes": "20"
					},
					"t_mapping(t_address,t_uint256)": {
						"encoding": "mapping",
						"key": "t_address",
						"label": "mapping(address => uint256)",
						"numberOfBytes": "32",
						"value": "t_uint256"
					},
					"t_uint256": {
						"encoding": "inplace",
						"label": "uint256",
						"numberOfBytes": "32"
					}
				}
			},
			"userdoc": {
				"kind": "user",
				"methods": {},
				"version": 1
			}
		}
	}
}